{
  "contractName": "SimpleNFT",
  "abi": [
    {
      "inputs": [],
      "stateMutability": "nonpayable",
      "type": "constructor"
    },
    {
      "anonymous": false,
      "inputs": [
        {
          "indexed": true,
          "internalType": "address",
          "name": "owner",
          "type": "address"
        },
        {
          "indexed": true,
          "internalType": "address",
          "name": "approved",
          "type": "address"
        },
        {
          "indexed": true,
          "internalType": "uint256",
          "name": "tokenId",
          "type": "uint256"
        }
      ],
      "name": "Approval",
      "type": "event"
    },
    {
      "anonymous": false,
      "inputs": [
        {
          "indexed": true,
          "internalType": "address",
          "name": "owner",
          "type": "address"
        },
        {
          "indexed": true,
          "internalType": "address",
          "name": "operator",
          "type": "address"
        },
        {
          "indexed": false,
          "internalType": "bool",
          "name": "approved",
          "type": "bool"
        }
      ],
      "name": "ApprovalForAll",
      "type": "event"
    },
    {
      "anonymous": false,
      "inputs": [
        {
          "indexed": true,
          "internalType": "address",
          "name": "from",
          "type": "address"
        },
        {
          "indexed": true,
          "internalType": "address",
          "name": "to",
          "type": "address"
        },
        {
          "indexed": true,
          "internalType": "uint256",
          "name": "tokenId",
          "type": "uint256"
        }
      ],
      "name": "Transfer",
      "type": "event"
    },
    {
      "inputs": [
        {
          "internalType": "address",
          "name": "to",
          "type": "address"
        },
        {
          "internalType": "uint256",
          "name": "tokenId",
          "type": "uint256"
        }
      ],
      "name": "approve",
      "outputs": [],
      "stateMutability": "nonpayable",
      "type": "function"
    },
    {
      "inputs": [
        {
          "internalType": "address",
          "name": "owner",
          "type": "address"
        }
      ],
      "name": "balanceOf",
      "outputs": [
        {
          "internalType": "uint256",
          "name": "",
          "type": "uint256"
        }
      ],
      "stateMutability": "view",
      "type": "function",
      "constant": true
    },
    {
      "inputs": [
        {
          "internalType": "uint256",
          "name": "",
          "type": "uint256"
        }
      ],
      "name": "colors",
      "outputs": [
        {
          "internalType": "string",
          "name": "",
          "type": "string"
        }
      ],
      "stateMutability": "view",
      "type": "function",
      "constant": true
    },
    {
      "inputs": [
        {
          "internalType": "uint256",
          "name": "tokenId",
          "type": "uint256"
        }
      ],
      "name": "getApproved",
      "outputs": [
        {
          "internalType": "address",
          "name": "",
          "type": "address"
        }
      ],
      "stateMutability": "view",
      "type": "function",
      "constant": true
    },
    {
      "inputs": [
        {
          "internalType": "address",
          "name": "owner",
          "type": "address"
        },
        {
          "internalType": "address",
          "name": "operator",
          "type": "address"
        }
      ],
      "name": "isApprovedForAll",
      "outputs": [
        {
          "internalType": "bool",
          "name": "",
          "type": "bool"
        }
      ],
      "stateMutability": "view",
      "type": "function",
      "constant": true
    },
    {
      "inputs": [],
      "name": "name",
      "outputs": [
        {
          "internalType": "string",
          "name": "",
          "type": "string"
        }
      ],
      "stateMutability": "view",
      "type": "function",
      "constant": true
    },
    {
      "inputs": [
        {
          "internalType": "uint256",
          "name": "tokenId",
          "type": "uint256"
        }
      ],
      "name": "ownerOf",
      "outputs": [
        {
          "internalType": "address",
          "name": "",
          "type": "address"
        }
      ],
      "stateMutability": "view",
      "type": "function",
      "constant": true
    },
    {
      "inputs": [
        {
          "internalType": "address",
          "name": "from",
          "type": "address"
        },
        {
          "internalType": "address",
          "name": "to",
          "type": "address"
        },
        {
          "internalType": "uint256",
          "name": "tokenId",
          "type": "uint256"
        }
      ],
      "name": "safeTransferFrom",
      "outputs": [],
      "stateMutability": "nonpayable",
      "type": "function"
    },
    {
      "inputs": [
        {
          "internalType": "address",
          "name": "from",
          "type": "address"
        },
        {
          "internalType": "address",
          "name": "to",
          "type": "address"
        },
        {
          "internalType": "uint256",
          "name": "tokenId",
          "type": "uint256"
        },
        {
          "internalType": "bytes",
          "name": "_data",
          "type": "bytes"
        }
      ],
      "name": "safeTransferFrom",
      "outputs": [],
      "stateMutability": "nonpayable",
      "type": "function"
    },
    {
      "inputs": [
        {
          "internalType": "address",
          "name": "operator",
          "type": "address"
        },
        {
          "internalType": "bool",
          "name": "approved",
          "type": "bool"
        }
      ],
      "name": "setApprovalForAll",
      "outputs": [],
      "stateMutability": "nonpayable",
      "type": "function"
    },
    {
      "inputs": [
        {
          "internalType": "bytes4",
          "name": "interfaceId",
          "type": "bytes4"
        }
      ],
      "name": "supportsInterface",
      "outputs": [
        {
          "internalType": "bool",
          "name": "",
          "type": "bool"
        }
      ],
      "stateMutability": "view",
      "type": "function",
      "constant": true
    },
    {
      "inputs": [],
      "name": "symbol",
      "outputs": [
        {
          "internalType": "string",
          "name": "",
          "type": "string"
        }
      ],
      "stateMutability": "view",
      "type": "function",
      "constant": true
    },
    {
      "inputs": [
        {
          "internalType": "uint256",
          "name": "tokenId",
          "type": "uint256"
        }
      ],
      "name": "tokenURI",
      "outputs": [
        {
          "internalType": "string",
          "name": "",
          "type": "string"
        }
      ],
      "stateMutability": "view",
      "type": "function",
      "constant": true
    },
    {
      "inputs": [
        {
          "internalType": "address",
          "name": "from",
          "type": "address"
        },
        {
          "internalType": "address",
          "name": "to",
          "type": "address"
        },
        {
          "internalType": "uint256",
          "name": "tokenId",
          "type": "uint256"
        }
      ],
      "name": "transferFrom",
      "outputs": [],
      "stateMutability": "nonpayable",
      "type": "function"
    },
    {
      "inputs": [
        {
          "internalType": "string",
          "name": "_color",
          "type": "string"
        }
      ],
      "name": "mint",
      "outputs": [],
      "stateMutability": "nonpayable",
      "type": "function"
    },
    {
      "inputs": [],
      "name": "totalSupply",
      "outputs": [
        {
          "internalType": "uint256",
          "name": "",
          "type": "uint256"
        }
      ],
      "stateMutability": "view",
      "type": "function",
      "constant": true
    },
    {
      "inputs": [],
      "name": "getColors",
      "outputs": [
        {
          "internalType": "string[]",
          "name": "",
          "type": "string[]"
        }
      ],
      "stateMutability": "view",
      "type": "function",
      "constant": true
    }
  ],
  "bytecode": "0x60806040523480156200001157600080fd5b506040518060400160405280600a81526020017f53696d706c65204e4654000000000000000000000000000000000000000000008152506040518060400160405280600481526020017f534e465400000000000000000000000000000000000000000000000000000000815250816000908051906020019062000096929190620000b8565b508060019080519060200190620000af929190620000b8565b505050620001cd565b828054620000c69062000168565b90600052602060002090601f016020900481019282620000ea576000855562000136565b82601f106200010557805160ff191683800117855562000136565b8280016001018555821562000136579182015b828111156200013557825182559160200191906001019062000118565b5b50905062000145919062000149565b5090565b5b80821115620001645760008160009055506001016200014a565b5090565b600060028204905060018216806200018157607f821691505b602082108114156200019857620001976200019e565b5b50919050565b7f4e487b7100000000000000000000000000000000000000000000000000000000600052602260045260246000fd5b612c5b80620001dd6000396000f3fe608060405234801561001057600080fd5b506004361061010b5760003560e01c806370a08231116100a2578063b88d4fde11610071578063b88d4fde146102b8578063bd11f69d146102d4578063c87b56dd14610304578063d85d3d2714610334578063e985e9c5146103505761010b565b806370a082311461023057806387c79d1d1461026057806395d89b411461027e578063a22cb4651461029c5761010b565b806318160ddd116100de57806318160ddd146101aa57806323b872dd146101c857806342842e0e146101e45780636352211e146102005761010b565b806301ffc9a71461011057806306fdde0314610140578063081812fc1461015e578063095ea7b31461018e575b600080fd5b61012a60048036038101906101259190611c4f565b610380565b604051610137919061215f565b60405180910390f35b610148610462565b604051610155919061217a565b60405180910390f35b61017860048036038101906101739190611cf2565b6104f4565b60405161018591906120d6565b60405180910390f35b6101a860048036038101906101a39190611c0f565b610579565b005b6101b2610691565b6040516101bf919061235c565b60405180910390f35b6101e260048036038101906101dd9190611af9565b61069e565b005b6101fe60048036038101906101f99190611af9565b6106fe565b005b61021a60048036038101906102159190611cf2565b61071e565b60405161022791906120d6565b60405180910390f35b61024a60048036038101906102459190611a8c565b6107d0565b604051610257919061235c565b60405180910390f35b610268610888565b604051610275919061213d565b60405180910390f35b610286610961565b604051610293919061217a565b60405180910390f35b6102b660048036038101906102b19190611bcf565b6109f3565b005b6102d260048036038101906102cd9190611b4c565b610b74565b005b6102ee60048036038101906102e99190611cf2565b610bd6565b6040516102fb919061217a565b60405180910390f35b61031e60048036038101906103199190611cf2565b610c82565b60405161032b919061217a565b60405180910390f35b61034e60048036038101906103499190611ca9565b610d29565b005b61036a60048036038101906103659190611ab9565b610dea565b604051610377919061215f565b60405180910390f35b60007f80ac58cd000000000000000000000000000000000000000000000000000000007bffffffffffffffffffffffffffffffffffffffffffffffffffffffff1916827bffffffffffffffffffffffffffffffffffffffffffffffffffffffff1916148061044b57507f5b5e139f000000000000000000000000000000000000000000000000000000007bffffffffffffffffffffffffffffffffffffffffffffffffffffffff1916827bffffffffffffffffffffffffffffffffffffffffffffffffffffffff1916145b8061045b575061045a82610e7e565b5b9050919050565b606060008054610471906125fc565b80601f016020809104026020016040519081016040528092919081815260200182805461049d906125fc565b80156104ea5780601f106104bf576101008083540402835291602001916104ea565b820191906000526020600020905b8154815290600101906020018083116104cd57829003601f168201915b5050505050905090565b60006104ff82610ee8565b61053e576040517f08c379a0000000000000000000000000000000000000000000000000000000008152600401610535906122bc565b60405180910390fd5b6004600083815260200190815260200160002060009054906101000a900473ffffffffffffffffffffffffffffffffffffffff169050919050565b60006105848261071e565b90508073ffffffffffffffffffffffffffffffffffffffff168373ffffffffffffffffffffffffffffffffffffffff1614156105f5576040517f08c379a00000000000000000000000000000000000000000000000000000000081526004016105ec9061231c565b60405180910390fd5b8073ffffffffffffffffffffffffffffffffffffffff16610614610f54565b73ffffffffffffffffffffffffffffffffffffffff16148061064357506106428161063d610f54565b610dea565b5b610682576040517f08c379a00000000000000000000000000000000000000000000000000000000081526004016106799061223c565b60405180910390fd5b61068c8383610f5c565b505050565b6000600680549050905090565b6106af6106a9610f54565b82611015565b6106ee576040517f08c379a00000000000000000000000000000000000000000000000000000000081526004016106e59061233c565b60405180910390fd5b6106f98383836110f3565b505050565b61071983838360405180602001604052806000815250610b74565b505050565b6000806002600084815260200190815260200160002060009054906101000a900473ffffffffffffffffffffffffffffffffffffffff169050600073ffffffffffffffffffffffffffffffffffffffff168173ffffffffffffffffffffffffffffffffffffffff1614156107c7576040517f08c379a00000000000000000000000000000000000000000000000000000000081526004016107be9061227c565b60405180910390fd5b80915050919050565b60008073ffffffffffffffffffffffffffffffffffffffff168273ffffffffffffffffffffffffffffffffffffffff161415610841576040517f08c379a00000000000000000000000000000000000000000000000000000000081526004016108389061225c565b60405180910390fd5b600360008373ffffffffffffffffffffffffffffffffffffffff1673ffffffffffffffffffffffffffffffffffffffff168152602001908152602001600020549050919050565b60606006805480602002602001604051908101604052809291908181526020016000905b828210156109585783829060005260206000200180546108cb906125fc565b80601f01602080910402602001604051908101604052809291908181526020018280546108f7906125fc565b80156109445780601f1061091957610100808354040283529160200191610944565b820191906000526020600020905b81548152906001019060200180831161092757829003601f168201915b5050505050815260200190600101906108ac565b50505050905090565b606060018054610970906125fc565b80601f016020809104026020016040519081016040528092919081815260200182805461099c906125fc565b80156109e95780601f106109be576101008083540402835291602001916109e9565b820191906000526020600020905b8154815290600101906020018083116109cc57829003601f168201915b5050505050905090565b6109fb610f54565b73ffffffffffffffffffffffffffffffffffffffff168273ffffffffffffffffffffffffffffffffffffffff161415610a69576040517f08c379a0000000000000000000000000000000000000000000000000000000008152600401610a60906121fc565b60405180910390fd5b8060056000610a76610f54565b73ffffffffffffffffffffffffffffffffffffffff1673ffffffffffffffffffffffffffffffffffffffff16815260200190815260200160002060008473ffffffffffffffffffffffffffffffffffffffff1673ffffffffffffffffffffffffffffffffffffffff16815260200190815260200160002060006101000a81548160ff0219169083151502179055508173ffffffffffffffffffffffffffffffffffffffff16610b23610f54565b73ffffffffffffffffffffffffffffffffffffffff167f17307eab39ab6107e8899845ad3d59bd9653f200f220920489ca2b5937696c3183604051610b68919061215f565b60405180910390a35050565b610b85610b7f610f54565b83611015565b610bc4576040517f08c379a0000000000000000000000000000000000000000000000000000000008152600401610bbb9061233c565b60405180910390fd5b610bd08484848461134f565b50505050565b60068181548110610be657600080fd5b906000526020600020016000915090508054610c01906125fc565b80601f0160208091040260200160405190810160405280929190818152602001828054610c2d906125fc565b8015610c7a5780601f10610c4f57610100808354040283529160200191610c7a565b820191906000526020600020905b815481529060010190602001808311610c5d57829003601f168201915b505050505081565b6060610c8d82610ee8565b610ccc576040517f08c379a0000000000000000000000000000000000000000000000000000000008152600401610cc3906122fc565b60405180910390fd5b6000610cd66113ab565b90506000815111610cf65760405180602001604052806000815250610d21565b80610d00846113c2565b604051602001610d119291906120b2565b6040516020818303038152906040525b915050919050565b600781604051610d39919061209b565b908152602001604051809103902060009054906101000a900460ff1615610d5f57600080fd5b600681908060018154018082558091505060019003906000526020600020016000909190919091509080519060200190610d9a9291906118a0565b5060006006805490509050610daf3382611523565b6001600783604051610dc1919061209b565b908152602001604051809103902060006101000a81548160ff0219169083151502179055505050565b6000600560008473ffffffffffffffffffffffffffffffffffffffff1673ffffffffffffffffffffffffffffffffffffffff16815260200190815260200160002060008373ffffffffffffffffffffffffffffffffffffffff1673ffffffffffffffffffffffffffffffffffffffff16815260200190815260200160002060009054906101000a900460ff16905092915050565b60007f01ffc9a7000000000000000000000000000000000000000000000000000000007bffffffffffffffffffffffffffffffffffffffffffffffffffffffff1916827bffffffffffffffffffffffffffffffffffffffffffffffffffffffff1916149050919050565b60008073ffffffffffffffffffffffffffffffffffffffff166002600084815260200190815260200160002060009054906101000a900473ffffffffffffffffffffffffffffffffffffffff1673ffffffffffffffffffffffffffffffffffffffff1614159050919050565b600033905090565b816004600083815260200190815260200160002060006101000a81548173ffffffffffffffffffffffffffffffffffffffff021916908373ffffffffffffffffffffffffffffffffffffffff160217905550808273ffffffffffffffffffffffffffffffffffffffff16610fcf8361071e565b73ffffffffffffffffffffffffffffffffffffffff167f8c5be1e5ebec7d5bd14f71427d1e84f3dd0314c0f7b2291e5b200ac8c7c3b92560405160405180910390a45050565b600061102082610ee8565b61105f576040517f08c379a00000000000000000000000000000000000000000000000000000000081526004016110569061221c565b60405180910390fd5b600061106a8361071e565b90508073ffffffffffffffffffffffffffffffffffffffff168473ffffffffffffffffffffffffffffffffffffffff1614806110d957508373ffffffffffffffffffffffffffffffffffffffff166110c1846104f4565b73ffffffffffffffffffffffffffffffffffffffff16145b806110ea57506110e98185610dea565b5b91505092915050565b8273ffffffffffffffffffffffffffffffffffffffff166111138261071e565b73ffffffffffffffffffffffffffffffffffffffff1614611169576040517f08c379a0000000000000000000000000000000000000000000000000000000008152600401611160906122dc565b60405180910390fd5b600073ffffffffffffffffffffffffffffffffffffffff168273ffffffffffffffffffffffffffffffffffffffff1614156111d9576040517f08c379a00000000000000000000000000000000000000000000000000000000081526004016111d0906121dc565b60405180910390fd5b6111e48383836116f1565b6111ef600082610f5c565b6001600360008573ffffffffffffffffffffffffffffffffffffffff1673ffffffffffffffffffffffffffffffffffffffff168152602001908152602001600020600082825461123f9190612512565b925050819055506001600360008473ffffffffffffffffffffffffffffffffffffffff1673ffffffffffffffffffffffffffffffffffffffff1681526020019081526020016000206000828254611296919061248b565b92505081905550816002600083815260200190815260200160002060006101000a81548173ffffffffffffffffffffffffffffffffffffffff021916908373ffffffffffffffffffffffffffffffffffffffff160217905550808273ffffffffffffffffffffffffffffffffffffffff168473ffffffffffffffffffffffffffffffffffffffff167fddf252ad1be2c89b69c2b068fc378daa952ba7f163c4a11628f55a4df523b3ef60405160405180910390a4505050565b61135a8484846110f3565b611366848484846116f6565b6113a5576040517f08c379a000000000000000000000000000000000000000000000000000000000815260040161139c9061219c565b60405180910390fd5b50505050565b606060405180602001604052806000815250905090565b6060600082141561140a576040518060400160405280600181526020017f3000000000000000000000000000000000000000000000000000000000000000815250905061151e565b600082905060005b6000821461143c5780806114259061265f565b915050600a8261143591906124e1565b9150611412565b60008167ffffffffffffffff81111561145857611457612795565b5b6040519080825280601f01601f19166020018201604052801561148a5781602001600182028036833780820191505090505b5090505b60008514611517576001826114a39190612512565b9150600a856114b291906126a8565b60306114be919061248b565b60f81b8183815181106114d4576114d3612766565b5b60200101907effffffffffffffffffffffffffffffffffffffffffffffffffffffffffffff1916908160001a905350600a8561151091906124e1565b945061148e565b8093505050505b919050565b600073ffffffffffffffffffffffffffffffffffffffff168273ffffffffffffffffffffffffffffffffffffffff161415611593576040517f08c379a000000000000000000000000000000000000000000000000000000000815260040161158a9061229c565b60405180910390fd5b61159c81610ee8565b156115dc576040517f08c379a00000000000000000000000000000000000000000000000000000000081526004016115d3906121bc565b60405180910390fd5b6115e8600083836116f1565b6001600360008473ffffffffffffffffffffffffffffffffffffffff1673ffffffffffffffffffffffffffffffffffffffff1681526020019081526020016000206000828254611638919061248b565b92505081905550816002600083815260200190815260200160002060006101000a81548173ffffffffffffffffffffffffffffffffffffffff021916908373ffffffffffffffffffffffffffffffffffffffff160217905550808273ffffffffffffffffffffffffffffffffffffffff16600073ffffffffffffffffffffffffffffffffffffffff167fddf252ad1be2c89b69c2b068fc378daa952ba7f163c4a11628f55a4df523b3ef60405160405180910390a45050565b505050565b60006117178473ffffffffffffffffffffffffffffffffffffffff1661188d565b15611880578373ffffffffffffffffffffffffffffffffffffffff1663150b7a02611740610f54565b8786866040518563ffffffff1660e01b815260040161176294939291906120f1565b602060405180830381600087803b15801561177c57600080fd5b505af19250505080156117ad57506040513d601f19601f820116820180604052508101906117aa9190611c7c565b60015b611830573d80600081146117dd576040519150601f19603f3d011682016040523d82523d6000602084013e6117e2565b606091505b50600081511415611828576040517f08c379a000000000000000000000000000000000000000000000000000000000815260040161181f9061219c565b60405180910390fd5b805181602001fd5b63150b7a0260e01b7bffffffffffffffffffffffffffffffffffffffffffffffffffffffff1916817bffffffffffffffffffffffffffffffffffffffffffffffffffffffff191614915050611885565b600190505b949350505050565b600080823b905060008111915050919050565b8280546118ac906125fc565b90600052602060002090601f0160209004810192826118ce5760008555611915565b82601f106118e757805160ff1916838001178555611915565b82800160010185558215611915579182015b828111156119145782518255916020019190600101906118f9565b5b5090506119229190611926565b5090565b5b8082111561193f576000816000905550600101611927565b5090565b60006119566119518461239c565b612377565b905082815260208101848484011115611972576119716127c9565b5b61197d8482856125ba565b509392505050565b6000611998611993846123cd565b612377565b9050828152602081018484840111156119b4576119b36127c9565b5b6119bf8482856125ba565b509392505050565b6000813590506119d681612bc9565b92915050565b6000813590506119eb81612be0565b92915050565b600081359050611a0081612bf7565b92915050565b600081519050611a1581612bf7565b92915050565b600082601f830112611a3057611a2f6127c4565b5b8135611a40848260208601611943565b91505092915050565b600082601f830112611a5e57611a5d6127c4565b5b8135611a6e848260208601611985565b91505092915050565b600081359050611a8681612c0e565b92915050565b600060208284031215611aa257611aa16127d3565b5b6000611ab0848285016119c7565b91505092915050565b60008060408385031215611ad057611acf6127d3565b5b6000611ade858286016119c7565b9250506020611aef858286016119c7565b9150509250929050565b600080600060608486031215611b1257611b116127d3565b5b6000611b20868287016119c7565b9350506020611b31868287016119c7565b9250506040611b4286828701611a77565b9150509250925092565b60008060008060808587031215611b6657611b656127d3565b5b6000611b74878288016119c7565b9450506020611b85878288016119c7565b9350506040611b9687828801611a77565b925050606085013567ffffffffffffffff811115611bb757611bb66127ce565b5b611bc387828801611a1b565b91505092959194509250565b60008060408385031215611be657611be56127d3565b5b6000611bf4858286016119c7565b9250506020611c05858286016119dc565b9150509250929050565b60008060408385031215611c2657611c256127d3565b5b6000611c34858286016119c7565b9250506020611c4585828601611a77565b9150509250929050565b600060208284031215611c6557611c646127d3565b5b6000611c73848285016119f1565b91505092915050565b600060208284031215611c9257611c916127d3565b5b6000611ca084828501611a06565b91505092915050565b600060208284031215611cbf57611cbe6127d3565b5b600082013567ffffffffffffffff811115611cdd57611cdc6127ce565b5b611ce984828501611a49565b91505092915050565b600060208284031215611d0857611d076127d3565b5b6000611d1684828501611a77565b91505092915050565b6000611d2b8383611dff565b905092915050565b611d3c81612546565b82525050565b6000611d4d8261240e565b611d57818561243c565b935083602082028501611d69856123fe565b8060005b85811015611da55784840389528151611d868582611d1f565b9450611d918361242f565b925060208a01995050600181019050611d6d565b50829750879550505050505092915050565b611dc081612558565b82525050565b6000611dd182612419565b611ddb818561244d565b9350611deb8185602086016125c9565b611df4816127d8565b840191505092915050565b6000611e0a82612424565b611e14818561245e565b9350611e248185602086016125c9565b611e2d816127d8565b840191505092915050565b6000611e4382612424565b611e4d818561246f565b9350611e5d8185602086016125c9565b611e66816127d8565b840191505092915050565b6000611e7c82612424565b611e868185612480565b9350611e968185602086016125c9565b80840191505092915050565b6000611eaf60328361246f565b9150611eba826127e9565b604082019050919050565b6000611ed2601c8361246f565b9150611edd82612838565b602082019050919050565b6000611ef560248361246f565b9150611f0082612861565b604082019050919050565b6000611f1860198361246f565b9150611f23826128b0565b602082019050919050565b6000611f3b602c8361246f565b9150611f46826128d9565b604082019050919050565b6000611f5e60388361246f565b9150611f6982612928565b604082019050919050565b6000611f81602a8361246f565b9150611f8c82612977565b604082019050919050565b6000611fa460298361246f565b9150611faf826129c6565b604082019050919050565b6000611fc760208361246f565b9150611fd282612a15565b602082019050919050565b6000611fea602c8361246f565b9150611ff582612a3e565b604082019050919050565b600061200d60298361246f565b915061201882612a8d565b604082019050919050565b6000612030602f8361246f565b915061203b82612adc565b604082019050919050565b600061205360218361246f565b915061205e82612b2b565b604082019050919050565b600061207660318361246f565b915061208182612b7a565b604082019050919050565b612095816125b0565b82525050565b60006120a78284611e71565b915081905092915050565b60006120be8285611e71565b91506120ca8284611e71565b91508190509392505050565b60006020820190506120eb6000830184611d33565b92915050565b60006080820190506121066000830187611d33565b6121136020830186611d33565b612120604083018561208c565b81810360608301526121328184611dc6565b905095945050505050565b600060208201905081810360008301526121578184611d42565b905092915050565b60006020820190506121746000830184611db7565b92915050565b600060208201905081810360008301526121948184611e38565b905092915050565b600060208201905081810360008301526121b581611ea2565b9050919050565b600060208201905081810360008301526121d581611ec5565b9050919050565b600060208201905081810360008301526121f581611ee8565b9050919050565b6000602082019050818103600083015261221581611f0b565b9050919050565b6000602082019050818103600083015261223581611f2e565b9050919050565b6000602082019050818103600083015261225581611f51565b9050919050565b6000602082019050818103600083015261227581611f74565b9050919050565b6000602082019050818103600083015261229581611f97565b9050919050565b600060208201905081810360008301526122b581611fba565b9050919050565b600060208201905081810360008301526122d581611fdd565b9050919050565b600060208201905081810360008301526122f581612000565b9050919050565b6000602082019050818103600083015261231581612023565b9050919050565b6000602082019050818103600083015261233581612046565b9050919050565b6000602082019050818103600083015261235581612069565b9050919050565b6000602082019050612371600083018461208c565b92915050565b6000612381612392565b905061238d828261262e565b919050565b6000604051905090565b600067ffffffffffffffff8211156123b7576123b6612795565b5b6123c0826127d8565b9050602081019050919050565b600067ffffffffffffffff8211156123e8576123e7612795565b5b6123f1826127d8565b9050602081019050919050565b6000819050602082019050919050565b600081519050919050565b600081519050919050565b600081519050919050565b6000602082019050919050565b600082825260208201905092915050565b600082825260208201905092915050565b600082825260208201905092915050565b600082825260208201905092915050565b600081905092915050565b6000612496826125b0565b91506124a1836125b0565b9250827fffffffffffffffffffffffffffffffffffffffffffffffffffffffffffffffff038211156124d6576124d56126d9565b5b828201905092915050565b60006124ec826125b0565b91506124f7836125b0565b92508261250757612506612708565b5b828204905092915050565b600061251d826125b0565b9150612528836125b0565b92508282101561253b5761253a6126d9565b5b828203905092915050565b600061255182612590565b9050919050565b60008115159050919050565b60007fffffffff0000000000000000000000000000000000000000000000000000000082169050919050565b600073ffffffffffffffffffffffffffffffffffffffff82169050919050565b6000819050919050565b82818337600083830152505050565b60005b838110156125e75780820151818401526020810190506125cc565b838111156125f6576000848401525b50505050565b6000600282049050600182168061261457607f821691505b6020821081141561262857612627612737565b5b50919050565b612637826127d8565b810181811067ffffffffffffffff8211171561265657612655612795565b5b80604052505050565b600061266a826125b0565b91507fffffffffffffffffffffffffffffffffffffffffffffffffffffffffffffffff82141561269d5761269c6126d9565b5b600182019050919050565b60006126b3826125b0565b91506126be836125b0565b9250826126ce576126cd612708565b5b828206905092915050565b7f4e487b7100000000000000000000000000000000000000000000000000000000600052601160045260246000fd5b7f4e487b7100000000000000000000000000000000000000000000000000000000600052601260045260246000fd5b7f4e487b7100000000000000000000000000000000000000000000000000000000600052602260045260246000fd5b7f4e487b7100000000000000000000000000000000000000000000000000000000600052603260045260246000fd5b7f4e487b7100000000000000000000000000000000000000000000000000000000600052604160045260246000fd5b600080fd5b600080fd5b600080fd5b600080fd5b6000601f19601f8301169050919050565b7f4552433732313a207472616e7366657220746f206e6f6e20455243373231526560008201527f63656976657220696d706c656d656e7465720000000000000000000000000000602082015250565b7f4552433732313a20746f6b656e20616c7265616479206d696e74656400000000600082015250565b7f4552433732313a207472616e7366657220746f20746865207a65726f2061646460008201527f7265737300000000000000000000000000000000000000000000000000000000602082015250565b7f4552433732313a20617070726f766520746f2063616c6c657200000000000000600082015250565b7f4552433732313a206f70657261746f7220717565727920666f72206e6f6e657860008201527f697374656e7420746f6b656e0000000000000000000000000000000000000000602082015250565b7f4552433732313a20617070726f76652063616c6c6572206973206e6f74206f7760008201527f6e6572206e6f7220617070726f76656420666f7220616c6c0000000000000000602082015250565b7f4552433732313a2062616c616e636520717565727920666f7220746865207a6560008201527f726f206164647265737300000000000000000000000000000000000000000000602082015250565b7f4552433732313a206f776e657220717565727920666f72206e6f6e657869737460008201527f656e7420746f6b656e0000000000000000000000000000000000000000000000602082015250565b7f4552433732313a206d696e7420746f20746865207a65726f2061646472657373600082015250565b7f4552433732313a20617070726f76656420717565727920666f72206e6f6e657860008201527f697374656e7420746f6b656e0000000000000000000000000000000000000000602082015250565b7f4552433732313a207472616e73666572206f6620746f6b656e2074686174206960008201527f73206e6f74206f776e0000000000000000000000000000000000000000000000602082015250565b7f4552433732314d657461646174613a2055524920717565727920666f72206e6f60008201527f6e6578697374656e7420746f6b656e0000000000000000000000000000000000602082015250565b7f4552433732313a20617070726f76616c20746f2063757272656e74206f776e6560008201527f7200000000000000000000000000000000000000000000000000000000000000602082015250565b7f4552433732313a207472616e736665722063616c6c6572206973206e6f74206f60008201527f776e6572206e6f7220617070726f766564000000000000000000000000000000602082015250565b612bd281612546565b8114612bdd57600080fd5b50565b612be981612558565b8114612bf457600080fd5b50565b612c0081612564565b8114612c0b57600080fd5b50565b612c17816125b0565b8114612c2257600080fd5b5056fea264697066735822122047eb7a8f97f233c762ea51317dfb1c2e602a37194353fc67bcf5c5e3cbab88d364736f6c63430008060033",
  "immutableReferences": {},
  "source": "/* SPDX-License-Identifier: MIT */\npragma solidity >=0.4.22 <0.9.0;\n\nimport \"@openzeppelin/contracts/token/ERC721/ERC721.sol\";\n\ncontract SimpleNFT is ERC721 {\n    string[] public colors;\n    mapping(string => bool) _colorExists;\n\n    constructor() ERC721(\"Simple NFT\", \"SNFT\") {}\n\n    function mint(string memory _color) public {\n        require(!_colorExists[_color]);\n\n        colors.push(_color);\n\n        uint256 _id = colors.length;\n        _mint(msg.sender, _id);\n\n        _colorExists[_color] = true;\n    }\n\n    function totalSupply() public view returns (uint256) {\n        return colors.length;\n    }\n\n    function getColors() public view returns (string[] memory) {\n        return colors;\n    }\n}\n",
  "sourcePath": "/Users/yarapolana/Backup/Development/STUDY/Udacity/Crypto/src/contracts/SimpleNFT.sol",
  "compiler": {
    "name": "solc",
    "version": "0.8.6+commit.11564f7e.Emscripten.clang"
  },
  "schemaVersion": "3.4.1",
  "updatedAt": "2021-07-21T03:53:01.277Z",
  "networkType": "ethereum",
  "devdoc": {
    "kind": "dev",
    "methods": {
      "approve(address,uint256)": {
        "details": "See {IERC721-approve}."
      },
      "balanceOf(address)": {
        "details": "See {IERC721-balanceOf}."
      },
      "getApproved(uint256)": {
        "details": "See {IERC721-getApproved}."
      },
      "isApprovedForAll(address,address)": {
        "details": "See {IERC721-isApprovedForAll}."
      },
      "name()": {
        "details": "See {IERC721Metadata-name}."
      },
      "ownerOf(uint256)": {
        "details": "See {IERC721-ownerOf}."
      },
      "safeTransferFrom(address,address,uint256)": {
        "details": "See {IERC721-safeTransferFrom}."
      },
      "safeTransferFrom(address,address,uint256,bytes)": {
        "details": "See {IERC721-safeTransferFrom}."
      },
      "setApprovalForAll(address,bool)": {
        "details": "See {IERC721-setApprovalForAll}."
      },
      "supportsInterface(bytes4)": {
        "details": "See {IERC165-supportsInterface}."
      },
      "symbol()": {
        "details": "See {IERC721Metadata-symbol}."
      },
      "tokenURI(uint256)": {
        "details": "See {IERC721Metadata-tokenURI}."
      },
      "transferFrom(address,address,uint256)": {
        "details": "See {IERC721-transferFrom}."
      }
    },
    "version": 1
  },
  "userdoc": {
    "kind": "user",
    "methods": {},
    "version": 1
  }
}